{"abi":[{"type":"constructor","inputs":[{"name":"baseUri","type":"string","internalType":"string"}],"stateMutability":"nonpayable"},{"type":"function","name":"DEFAULT_ADMIN_ROLE","inputs":[],"outputs":[{"name":"","type":"bytes32","internalType":"bytes32"}],"stateMutability":"view"},{"type":"function","name":"MINTER_ROLE","inputs":[],"outputs":[{"name":"","type":"bytes32","internalType":"bytes32"}],"stateMutability":"view"},{"type":"function","name":"balanceOf","inputs":[{"name":"account","type":"address","internalType":"address"},{"name":"id","type":"uint256","internalType":"uint256"}],"outputs":[{"name":"","type":"uint256","internalType":"uint256"}],"stateMutability":"view"},{"type":"function","name":"balanceOfBatch","inputs":[{"name":"accounts","type":"address[]","internalType":"address[]"},{"name":"ids","type":"uint256[]","internalType":"uint256[]"}],"outputs":[{"name":"","type":"uint256[]","internalType":"uint256[]"}],"stateMutability":"view"},{"type":"function","name":"exists","inputs":[{"name":"id","type":"uint256","internalType":"uint256"}],"outputs":[{"name":"","type":"bool","internalType":"bool"}],"stateMutability":"view"},{"type":"function","name":"getRoleAdmin","inputs":[{"name":"role","type":"bytes32","internalType":"bytes32"}],"outputs":[{"name":"","type":"bytes32","internalType":"bytes32"}],"stateMutability":"view"},{"type":"function","name":"grantRole","inputs":[{"name":"role","type":"bytes32","internalType":"bytes32"},{"name":"account","type":"address","internalType":"address"}],"outputs":[],"stateMutability":"nonpayable"},{"type":"function","name":"hasRole","inputs":[{"name":"role","type":"bytes32","internalType":"bytes32"},{"name":"account","type":"address","internalType":"address"}],"outputs":[{"name":"","type":"bool","internalType":"bool"}],"stateMutability":"view"},{"type":"function","name":"isApprovedForAll","inputs":[{"name":"account","type":"address","internalType":"address"},{"name":"operator","type":"address","internalType":"address"}],"outputs":[{"name":"","type":"bool","internalType":"bool"}],"stateMutability":"view"},{"type":"function","name":"mintBatchOrnaments","inputs":[{"name":"to","type":"address","internalType":"address"},{"name":"ids","type":"uint256[]","internalType":"uint256[]"},{"name":"amounts","type":"uint256[]","internalType":"uint256[]"},{"name":"uris","type":"string[]","internalType":"string[]"}],"outputs":[],"stateMutability":"nonpayable"},{"type":"function","name":"mintOrnament","inputs":[{"name":"to","type":"address","internalType":"address"},{"name":"tokenId","type":"uint256","internalType":"uint256"},{"name":"amount","type":"uint256","internalType":"uint256"},{"name":"uri_","type":"string","internalType":"string"}],"outputs":[],"stateMutability":"nonpayable"},{"type":"function","name":"renounceRole","inputs":[{"name":"role","type":"bytes32","internalType":"bytes32"},{"name":"callerConfirmation","type":"address","internalType":"address"}],"outputs":[],"stateMutability":"nonpayable"},{"type":"function","name":"revokeRole","inputs":[{"name":"role","type":"bytes32","internalType":"bytes32"},{"name":"account","type":"address","internalType":"address"}],"outputs":[],"stateMutability":"nonpayable"},{"type":"function","name":"safeBatchTransferFrom","inputs":[{"name":"from","type":"address","internalType":"address"},{"name":"to","type":"address","internalType":"address"},{"name":"ids","type":"uint256[]","internalType":"uint256[]"},{"name":"values","type":"uint256[]","internalType":"uint256[]"},{"name":"data","type":"bytes","internalType":"bytes"}],"outputs":[],"stateMutability":"nonpayable"},{"type":"function","name":"safeTransferFrom","inputs":[{"name":"from","type":"address","internalType":"address"},{"name":"to","type":"address","internalType":"address"},{"name":"id","type":"uint256","internalType":"uint256"},{"name":"value","type":"uint256","internalType":"uint256"},{"name":"data","type":"bytes","internalType":"bytes"}],"outputs":[],"stateMutability":"nonpayable"},{"type":"function","name":"setApprovalForAll","inputs":[{"name":"operator","type":"address","internalType":"address"},{"name":"approved","type":"bool","internalType":"bool"}],"outputs":[],"stateMutability":"nonpayable"},{"type":"function","name":"supportsInterface","inputs":[{"name":"interfaceId","type":"bytes4","internalType":"bytes4"}],"outputs":[{"name":"","type":"bool","internalType":"bool"}],"stateMutability":"view"},{"type":"function","name":"totalSupply","inputs":[],"outputs":[{"name":"","type":"uint256","internalType":"uint256"}],"stateMutability":"view"},{"type":"function","name":"totalSupply","inputs":[{"name":"id","type":"uint256","internalType":"uint256"}],"outputs":[{"name":"","type":"uint256","internalType":"uint256"}],"stateMutability":"view"},{"type":"function","name":"uri","inputs":[{"name":"tokenId","type":"uint256","internalType":"uint256"}],"outputs":[{"name":"","type":"string","internalType":"string"}],"stateMutability":"view"},{"type":"event","name":"ApprovalForAll","inputs":[{"name":"account","type":"address","indexed":true,"internalType":"address"},{"name":"operator","type":"address","indexed":true,"internalType":"address"},{"name":"approved","type":"bool","indexed":false,"internalType":"bool"}],"anonymous":false},{"type":"event","name":"RoleAdminChanged","inputs":[{"name":"role","type":"bytes32","indexed":true,"internalType":"bytes32"},{"name":"previousAdminRole","type":"bytes32","indexed":true,"internalType":"bytes32"},{"name":"newAdminRole","type":"bytes32","indexed":true,"internalType":"bytes32"}],"anonymous":false},{"type":"event","name":"RoleGranted","inputs":[{"name":"role","type":"bytes32","indexed":true,"internalType":"bytes32"},{"name":"account","type":"address","indexed":true,"internalType":"address"},{"name":"sender","type":"address","indexed":true,"internalType":"address"}],"anonymous":false},{"type":"event","name":"RoleRevoked","inputs":[{"name":"role","type":"bytes32","indexed":true,"internalType":"bytes32"},{"name":"account","type":"address","indexed":true,"internalType":"address"},{"name":"sender","type":"address","indexed":true,"internalType":"address"}],"anonymous":false},{"type":"event","name":"TransferBatch","inputs":[{"name":"operator","type":"address","indexed":true,"internalType":"address"},{"name":"from","type":"address","indexed":true,"internalType":"address"},{"name":"to","type":"address","indexed":true,"internalType":"address"},{"name":"ids","type":"uint256[]","indexed":false,"internalType":"uint256[]"},{"name":"values","type":"uint256[]","indexed":false,"internalType":"uint256[]"}],"anonymous":false},{"type":"event","name":"TransferSingle","inputs":[{"name":"operator","type":"address","indexed":true,"internalType":"address"},{"name":"from","type":"address","indexed":true,"internalType":"address"},{"name":"to","type":"address","indexed":true,"internalType":"address"},{"name":"id","type":"uint256","indexed":false,"internalType":"uint256"},{"name":"value","type":"uint256","indexed":false,"internalType":"uint256"}],"anonymous":false},{"type":"event","name":"URI","inputs":[{"name":"value","type":"string","indexed":false,"internalType":"string"},{"name":"id","type":"uint256","indexed":true,"internalType":"uint256"}],"anonymous":false},{"type":"error","name":"AccessControlBadConfirmation","inputs":[]},{"type":"error","name":"AccessControlUnauthorizedAccount","inputs":[{"name":"account","type":"address","internalType":"address"},{"name":"neededRole","type":"bytes32","internalType":"bytes32"}]},{"type":"error","name":"ERC1155InsufficientBalance","inputs":[{"name":"sender","type":"address","internalType":"address"},{"name":"balance","type":"uint256","internalType":"uint256"},{"name":"needed","type":"uint256","internalType":"uint256"},{"name":"tokenId","type":"uint256","internalType":"uint256"}]},{"type":"error","name":"ERC1155InvalidApprover","inputs":[{"name":"approver","type":"address","internalType":"address"}]},{"type":"error","name":"ERC1155InvalidArrayLength","inputs":[{"name":"idsLength","type":"uint256","internalType":"uint256"},{"name":"valuesLength","type":"uint256","internalType":"uint256"}]},{"type":"error","name":"ERC1155InvalidOperator","inputs":[{"name":"operator","type":"address","internalType":"address"}]},{"type":"error","name":"ERC1155InvalidReceiver","inputs":[{"name":"receiver","type":"address","internalType":"address"}]},{"type":"error","name":"ERC1155InvalidSender","inputs":[{"name":"sender","type":"address","internalType":"address"}]},{"type":"error","name":"ERC1155MissingApprovalForAll","inputs":[{"name":"operator","type":"address","internalType":"address"},{"name":"owner","type":"address","internalType":"address"}]}],"bytecode":{"object":"0x608060405260405180602001604052805f8152506005908162000023919062000498565b5034801562000030575f80fd5b50604051620038d7380380620038d78339818101604052810190620000569190620006d4565b806200006881620000b860201b60201c565b506200007d5f801b33620000cd60201b60201c565b50620000b07f9f2df0fed2c77648de5860a4cc508cd0818c85b8b8a1ab4ceeef8d981c8956a633620000cd60201b60201c565b505062000723565b8060029081620000c9919062000498565b5050565b5f620000e08383620001c960201b60201c565b620001bf57600160075f8581526020019081526020015f205f015f8473ffffffffffffffffffffffffffffffffffffffff1673ffffffffffffffffffffffffffffffffffffffff1681526020019081526020015f205f6101000a81548160ff0219169083151502179055506200015b6200022d60201b60201c565b73ffffffffffffffffffffffffffffffffffffffff168273ffffffffffffffffffffffffffffffffffffffff16847f2f8788117e7eff1d82e926ec794901d17c78024a50270940304540a733656f0d60405160405180910390a460019050620001c3565b5f90505b92915050565b5f60075f8481526020019081526020015f205f015f8373ffffffffffffffffffffffffffffffffffffffff1673ffffffffffffffffffffffffffffffffffffffff1681526020019081526020015f205f9054906101000a900460ff16905092915050565b5f33905090565b5f81519050919050565b7f4e487b71000000000000000000000000000000000000000000000000000000005f52604160045260245ffd5b7f4e487b71000000000000000000000000000000000000000000000000000000005f52602260045260245ffd5b5f6002820490506001821680620002b057607f821691505b602082108103620002c657620002c56200026b565b5b50919050565b5f819050815f5260205f209050919050565b5f6020601f8301049050919050565b5f82821b905092915050565b5f600883026200032a7fffffffffffffffffffffffffffffffffffffffffffffffffffffffffffffffff82620002ed565b620003368683620002ed565b95508019841693508086168417925050509392505050565b5f819050919050565b5f819050919050565b5f620003806200037a62000374846200034e565b62000357565b6200034e565b9050919050565b5f819050919050565b6200039b8362000360565b620003b3620003aa8262000387565b848454620002f9565b825550505050565b5f90565b620003c9620003bb565b620003d681848462000390565b505050565b5b81811015620003fd57620003f15f82620003bf565b600181019050620003dc565b5050565b601f8211156200044c576200041681620002cc565b6200042184620002de565b8101602085101562000431578190505b620004496200044085620002de565b830182620003db565b50505b505050565b5f82821c905092915050565b5f6200046e5f198460080262000451565b1980831691505092915050565b5f6200048883836200045d565b9150826002028217905092915050565b620004a38262000234565b67ffffffffffffffff811115620004bf57620004be6200023e565b5b620004cb825462000298565b620004d882828562000401565b5f60209050601f8311600181146200050e575f8415620004f9578287015190505b6200050585826200047b565b86555062000574565b601f1984166200051e86620002cc565b5f5b82811015620005475784890151825560018201915060208501945060208101905062000520565b8683101562000567578489015162000563601f8916826200045d565b8355505b6001600288020188555050505b505050505050565b5f604051905090565b5f80fd5b5f80fd5b5f80fd5b5f80fd5b5f601f19601f8301169050919050565b620005b08262000595565b810181811067ffffffffffffffff82111715620005d257620005d16200023e565b5b80604052505050565b5f620005e66200057c565b9050620005f48282620005a5565b919050565b5f67ffffffffffffffff8211156200061657620006156200023e565b5b620006218262000595565b9050602081019050919050565b5f5b838110156200064d57808201518184015260208101905062000630565b5f8484015250505050565b5f6200066e6200066884620005f9565b620005db565b9050828152602081018484840111156200068d576200068c62000591565b5b6200069a8482856200062e565b509392505050565b5f82601f830112620006b957620006b86200058d565b5b8151620006cb84826020860162000658565b91505092915050565b5f60208284031215620006ec57620006eb62000585565b5b5f82015167ffffffffffffffff8111156200070c576200070b62000589565b5b6200071a84828501620006a2565b91505092915050565b6131a680620007315f395ff3fe608060405234801561000f575f80fd5b5060043610610129575f3560e01c80634f558e79116100ab578063bd85b0391161006f578063bd85b03914610361578063d539139314610391578063d547741f146103af578063e985e9c5146103cb578063f242432a146103fb57610129565b80634f558e79146102ab57806363c231f0146102db57806391d14854146102f7578063a217fddf14610327578063a22cb4651461034557610129565b80632eb2c2d6116100f25780632eb2c2d61461020b5780632f2ff15d1461022757806336568abe146102435780633d8027801461025f5780634e1273f41461027b57610129565b8062fdd58e1461012d57806301ffc9a71461015d5780630e89341c1461018d57806318160ddd146101bd578063248a9ca3146101db575b5f80fd5b61014760048036038101906101429190611f0a565b610417565b6040516101549190611f57565b60405180910390f35b61017760048036038101906101729190611fc5565b61046c565b604051610184919061200a565b60405180910390f35b6101a760048036038101906101a29190612023565b61047d565b6040516101b491906120d8565b60405180910390f35b6101c561048f565b6040516101d29190611f57565b60405180910390f35b6101f560048036038101906101f0919061212b565b610498565b6040516102029190612165565b60405180910390f35b6102256004803603810190610220919061236e565b6104b5565b005b610241600480360381019061023c9190612439565b61055c565b005b61025d60048036038101906102589190612439565b61057e565b005b610279600480360381019061027491906125f3565b6105f9565b005b6102956004803603810190610290919061276b565b61070d565b6040516102a29190612898565b60405180910390f35b6102c560048036038101906102c09190612023565b610814565b6040516102d2919061200a565b60405180910390f35b6102f560048036038101906102f091906128b8565b610827565b005b610311600480360381019061030c9190612439565b610886565b60405161031e919061200a565b60405180910390f35b61032f6108ea565b60405161033c9190612165565b60405180910390f35b61035f600480360381019061035a9190612962565b6108f0565b005b61037b60048036038101906103769190612023565b610906565b6040516103889190611f57565b60405180910390f35b610399610920565b6040516103a69190612165565b60405180910390f35b6103c960048036038101906103c49190612439565b610944565b005b6103e560048036038101906103e091906129a0565b610966565b6040516103f2919061200a565b60405180910390f35b610415600480360381019061041091906129de565b6109f4565b005b5f805f8381526020019081526020015f205f8473ffffffffffffffffffffffffffffffffffffffff1673ffffffffffffffffffffffffffffffffffffffff1681526020019081526020015f2054905092915050565b5f61047682610a9b565b9050919050565b606061048882610b14565b9050919050565b5f600454905090565b5f60075f8381526020019081526020015f20600101549050919050565b5f6104be610bf3565b90508073ffffffffffffffffffffffffffffffffffffffff168673ffffffffffffffffffffffffffffffffffffffff161415801561050357506105018682610966565b155b156105475780866040517fe237d92200000000000000000000000000000000000000000000000000000000815260040161053e929190612a80565b60405180910390fd5b6105548686868686610bfa565b505050505050565b61056582610498565b61056e81610cee565b6105788383610d02565b50505050565b610586610bf3565b73ffffffffffffffffffffffffffffffffffffffff168173ffffffffffffffffffffffffffffffffffffffff16146105ea576040517f6697b23200000000000000000000000000000000000000000000000000000000815260040160405180910390fd5b6105f48282610dec565b505050565b7f9f2df0fed2c77648de5860a4cc508cd0818c85b8b8a1ab4ceeef8d981c8956a661062381610cee565b5f825111156106ec578351825114610670576040517f08c379a000000000000000000000000000000000000000000000000000000000815260040161066790612af1565b60405180910390fd5b5f5b84518110156106ea575f83828151811061068f5761068e612b0f565b5b60200260200101515111156106dd576106dc8582815181106106b4576106b3612b0f565b5b60200260200101518483815181106106cf576106ce612b0f565b5b6020026020010151610ed6565b5b8080600101915050610672565b505b61070685858560405180602001604052805f815250610f39565b5050505050565b6060815183511461075957815183516040517f5b059991000000000000000000000000000000000000000000000000000000008152600401610750929190612b3c565b60405180910390fd5b5f835167ffffffffffffffff81111561077557610774612182565b5b6040519080825280602002602001820160405280156107a35781602001602082028036833780820191505090505b5090505f5b8451811015610809576107df6107c78287610fbc90919063ffffffff16565b6107da8387610fcf90919063ffffffff16565b610417565b8282815181106107f2576107f1612b0f565b5b6020026020010181815250508060010190506107a8565b508091505092915050565b5f8061081f83610906565b119050919050565b7f9f2df0fed2c77648de5860a4cc508cd0818c85b8b8a1ab4ceeef8d981c8956a661085181610cee565b5f82511115610865576108648483610ed6565b5b61087f85858560405180602001604052805f815250610fe2565b5050505050565b5f60075f8481526020019081526020015f205f015f8373ffffffffffffffffffffffffffffffffffffffff1673ffffffffffffffffffffffffffffffffffffffff1681526020019081526020015f205f9054906101000a900460ff16905092915050565b5f801b81565b6109026108fb610bf3565b8383611077565b5050565b5f60035f8381526020019081526020015f20549050919050565b7f9f2df0fed2c77648de5860a4cc508cd0818c85b8b8a1ab4ceeef8d981c8956a681565b61094d82610498565b61095681610cee565b6109608383610dec565b50505050565b5f60015f8473ffffffffffffffffffffffffffffffffffffffff1673ffffffffffffffffffffffffffffffffffffffff1681526020019081526020015f205f8373ffffffffffffffffffffffffffffffffffffffff1673ffffffffffffffffffffffffffffffffffffffff1681526020019081526020015f205f9054906101000a900460ff16905092915050565b5f6109fd610bf3565b90508073ffffffffffffffffffffffffffffffffffffffff168673ffffffffffffffffffffffffffffffffffffffff1614158015610a425750610a408682610966565b155b15610a865780866040517fe237d922000000000000000000000000000000000000000000000000000000008152600401610a7d929190612a80565b60405180910390fd5b610a9386868686866111e0565b505050505050565b5f7f7965db0b000000000000000000000000000000000000000000000000000000007bffffffffffffffffffffffffffffffffffffffffffffffffffffffff1916827bffffffffffffffffffffffffffffffffffffffffffffffffffffffff19161480610b0d5750610b0c826112e6565b5b9050919050565b60605f60065f8481526020019081526020015f208054610b3390612b90565b80601f0160208091040260200160405190810160405280929190818152602001828054610b5f90612b90565b8015610baa5780601f10610b8157610100808354040283529160200191610baa565b820191905f5260205f20905b815481529060010190602001808311610b8d57829003601f168201915b505050505090505f815111610bc757610bc2836113c7565b610beb565b600581604051602001610bdb929190612c8c565b6040516020818303038152906040525b915050919050565b5f33905090565b5f73ffffffffffffffffffffffffffffffffffffffff168473ffffffffffffffffffffffffffffffffffffffff1603610c6a575f6040517f57f447ce000000000000000000000000000000000000000000000000000000008152600401610c619190612caf565b60405180910390fd5b5f73ffffffffffffffffffffffffffffffffffffffff168573ffffffffffffffffffffffffffffffffffffffff1603610cda575f6040517f01a83514000000000000000000000000000000000000000000000000000000008152600401610cd19190612caf565b60405180910390fd5b610ce78585858585611459565b5050505050565b610cff81610cfa610bf3565b611505565b50565b5f610d0d8383610886565b610de257600160075f8581526020019081526020015f205f015f8473ffffffffffffffffffffffffffffffffffffffff1673ffffffffffffffffffffffffffffffffffffffff1681526020019081526020015f205f6101000a81548160ff021916908315150217905550610d7f610bf3565b73ffffffffffffffffffffffffffffffffffffffff168273ffffffffffffffffffffffffffffffffffffffff16847f2f8788117e7eff1d82e926ec794901d17c78024a50270940304540a733656f0d60405160405180910390a460019050610de6565b5f90505b92915050565b5f610df78383610886565b15610ecc575f60075f8581526020019081526020015f205f015f8473ffffffffffffffffffffffffffffffffffffffff1673ffffffffffffffffffffffffffffffffffffffff1681526020019081526020015f205f6101000a81548160ff021916908315150217905550610e69610bf3565b73ffffffffffffffffffffffffffffffffffffffff168273ffffffffffffffffffffffffffffffffffffffff16847ff6391f5c32d9c69d2a47ea670b442974b53935d1edc7fd64eb21e047a839171b60405160405180910390a460019050610ed0565b5f90505b92915050565b8060065f8481526020019081526020015f209081610ef49190612e53565b50817f6bb7ff708619ba0610cba295a58592e0451dee2622938c8755667688daf3529b610f208461047d565b604051610f2d91906120d8565b60405180910390a25050565b5f73ffffffffffffffffffffffffffffffffffffffff168473ffffffffffffffffffffffffffffffffffffffff1603610fa9575f6040517f57f447ce000000000000000000000000000000000000000000000000000000008152600401610fa09190612caf565b60405180910390fd5b610fb65f85858585611459565b50505050565b5f60208202602084010151905092915050565b5f60208202602084010151905092915050565b5f73ffffffffffffffffffffffffffffffffffffffff168473ffffffffffffffffffffffffffffffffffffffff1603611052575f6040517f57f447ce0000000000000000000000000000000000000000000000000000000081526004016110499190612caf565b60405180910390fd5b5f8061105e8585611556565b9150915061106f5f87848487611459565b505050505050565b5f73ffffffffffffffffffffffffffffffffffffffff168273ffffffffffffffffffffffffffffffffffffffff16036110e7575f6040517fced3e1000000000000000000000000000000000000000000000000000000000081526004016110de9190612caf565b60405180910390fd5b8060015f8573ffffffffffffffffffffffffffffffffffffffff1673ffffffffffffffffffffffffffffffffffffffff1681526020019081526020015f205f8473ffffffffffffffffffffffffffffffffffffffff1673ffffffffffffffffffffffffffffffffffffffff1681526020019081526020015f205f6101000a81548160ff0219169083151502179055508173ffffffffffffffffffffffffffffffffffffffff168373ffffffffffffffffffffffffffffffffffffffff167f17307eab39ab6107e8899845ad3d59bd9653f200f220920489ca2b5937696c31836040516111d3919061200a565b60405180910390a3505050565b5f73ffffffffffffffffffffffffffffffffffffffff168473ffffffffffffffffffffffffffffffffffffffff1603611250575f6040517f57f447ce0000000000000000000000000000000000000000000000000000000081526004016112479190612caf565b60405180910390fd5b5f73ffffffffffffffffffffffffffffffffffffffff168573ffffffffffffffffffffffffffffffffffffffff16036112c0575f6040517f01a835140000000000000000000000000000000000000000000000000000000081526004016112b79190612caf565b60405180910390fd5b5f806112cc8585611556565b915091506112dd8787848487611459565b50505050505050565b5f7fd9b67a26000000000000000000000000000000000000000000000000000000007bffffffffffffffffffffffffffffffffffffffffffffffffffffffff1916827bffffffffffffffffffffffffffffffffffffffffffffffffffffffff191614806113b057507f0e89341c000000000000000000000000000000000000000000000000000000007bffffffffffffffffffffffffffffffffffffffffffffffffffffffff1916827bffffffffffffffffffffffffffffffffffffffffffffffffffffffff1916145b806113c057506113bf82611586565b5b9050919050565b6060600280546113d690612b90565b80601f016020809104026020016040519081016040528092919081815260200182805461140290612b90565b801561144d5780601f106114245761010080835404028352916020019161144d565b820191905f5260205f20905b81548152906001019060200180831161143057829003601f168201915b50505050509050919050565b611465858585856115ef565b5f73ffffffffffffffffffffffffffffffffffffffff168473ffffffffffffffffffffffffffffffffffffffff16146114fe575f6114a1610bf3565b905060018451036114ed575f6114c05f86610fcf90919063ffffffff16565b90505f6114d65f86610fcf90919063ffffffff16565b90506114e6838989858589611601565b50506114fc565b6114fb8187878787876117b0565b5b505b5050505050565b61150f8282610886565b6115525780826040517fe2517d3f000000000000000000000000000000000000000000000000000000008152600401611549929190612f22565b60405180910390fd5b5050565b60608060405191506001825283602083015260408201905060018152826020820152604081016040529250929050565b5f7f01ffc9a7000000000000000000000000000000000000000000000000000000007bffffffffffffffffffffffffffffffffffffffffffffffffffffffff1916827bffffffffffffffffffffffffffffffffffffffffffffffffffffffff1916149050919050565b6115fb8484848461195f565b50505050565b5f8473ffffffffffffffffffffffffffffffffffffffff163b11156117a8578373ffffffffffffffffffffffffffffffffffffffff1663f23a6e6187878686866040518663ffffffff1660e01b8152600401611661959493929190612f9b565b6020604051808303815f875af192505050801561169c57506040513d601f19601f820116820180604052508101906116999190613007565b60015b61171d573d805f81146116ca576040519150601f19603f3d011682016040523d82523d5f602084013e6116cf565b606091505b505f81510361171557846040517f57f447ce00000000000000000000000000000000000000000000000000000000815260040161170c9190612caf565b60405180910390fd5b805181602001fd5b63f23a6e6160e01b7bffffffffffffffffffffffffffffffffffffffffffffffffffffffff1916817bffffffffffffffffffffffffffffffffffffffffffffffffffffffff1916146117a657846040517f57f447ce00000000000000000000000000000000000000000000000000000000815260040161179d9190612caf565b60405180910390fd5b505b505050505050565b5f8473ffffffffffffffffffffffffffffffffffffffff163b1115611957578373ffffffffffffffffffffffffffffffffffffffff1663bc197c8187878686866040518663ffffffff1660e01b8152600401611810959493929190613032565b6020604051808303815f875af192505050801561184b57506040513d601f19601f820116820180604052508101906118489190613007565b60015b6118cc573d805f8114611879576040519150601f19603f3d011682016040523d82523d5f602084013e61187e565b606091505b505f8151036118c457846040517f57f447ce0000000000000000000000000000000000000000000000000000000081526004016118bb9190612caf565b60405180910390fd5b805181602001fd5b63bc197c8160e01b7bffffffffffffffffffffffffffffffffffffffffffffffffffffffff1916817bffffffffffffffffffffffffffffffffffffffffffffffffffffffff19161461195557846040517f57f447ce00000000000000000000000000000000000000000000000000000000815260040161194c9190612caf565b60405180910390fd5b505b505050505050565b61196b84848484611adc565b5f73ffffffffffffffffffffffffffffffffffffffff168473ffffffffffffffffffffffffffffffffffffffff1603611a2e575f805b8351811015611a13575f6119be8285610fcf90919063ffffffff16565b90508060035f6119d78589610fcf90919063ffffffff16565b81526020019081526020015f205f8282546119f291906130c5565b925050819055508083611a0591906130c5565b9250508060010190506119a1565b508060045f828254611a2591906130c5565b92505081905550505b5f73ffffffffffffffffffffffffffffffffffffffff168373ffffffffffffffffffffffffffffffffffffffff1603611ad6575f805b8351811015611ac4575f611a818285610fcf90919063ffffffff16565b90508060035f611a9a8589610fcf90919063ffffffff16565b81526020019081526020015f205f8282540392505081905550808301925050806001019050611a64565b508060045f8282540392505081905550505b50505050565b8051825114611b2657815181516040517f5b059991000000000000000000000000000000000000000000000000000000008152600401611b1d929190612b3c565b60405180910390fd5b5f611b2f610bf3565b90505f5b8351811015611d2b575f611b508286610fcf90919063ffffffff16565b90505f611b668386610fcf90919063ffffffff16565b90505f73ffffffffffffffffffffffffffffffffffffffff168873ffffffffffffffffffffffffffffffffffffffff1614611c89575f805f8481526020019081526020015f205f8a73ffffffffffffffffffffffffffffffffffffffff1673ffffffffffffffffffffffffffffffffffffffff1681526020019081526020015f2054905081811015611c3557888183856040517f03dee4c5000000000000000000000000000000000000000000000000000000008152600401611c2c94939291906130f8565b60405180910390fd5b8181035f808581526020019081526020015f205f8b73ffffffffffffffffffffffffffffffffffffffff1673ffffffffffffffffffffffffffffffffffffffff1681526020019081526020015f2081905550505b5f73ffffffffffffffffffffffffffffffffffffffff168773ffffffffffffffffffffffffffffffffffffffff1614611d1e57805f808481526020019081526020015f205f8973ffffffffffffffffffffffffffffffffffffffff1673ffffffffffffffffffffffffffffffffffffffff1681526020019081526020015f205f828254611d1691906130c5565b925050819055505b5050806001019050611b33565b506001835103611de6575f611d495f85610fcf90919063ffffffff16565b90505f611d5f5f85610fcf90919063ffffffff16565b90508573ffffffffffffffffffffffffffffffffffffffff168773ffffffffffffffffffffffffffffffffffffffff168473ffffffffffffffffffffffffffffffffffffffff167fc3d58168c5ae7397731d063d5bbf3d657854427343f4c083240f7aacaa2d0f628585604051611dd7929190612b3c565b60405180910390a45050611e65565b8373ffffffffffffffffffffffffffffffffffffffff168573ffffffffffffffffffffffffffffffffffffffff168273ffffffffffffffffffffffffffffffffffffffff167f4a39dc06d4c0dbc64b70af90fd698a233a518aa5d07e595d983b8c0526c8f7fb8686604051611e5c92919061313b565b60405180910390a45b5050505050565b5f604051905090565b5f80fd5b5f80fd5b5f73ffffffffffffffffffffffffffffffffffffffff82169050919050565b5f611ea682611e7d565b9050919050565b611eb681611e9c565b8114611ec0575f80fd5b50565b5f81359050611ed181611ead565b92915050565b5f819050919050565b611ee981611ed7565b8114611ef3575f80fd5b50565b5f81359050611f0481611ee0565b92915050565b5f8060408385031215611f2057611f1f611e75565b5b5f611f2d85828601611ec3565b9250506020611f3e85828601611ef6565b9150509250929050565b611f5181611ed7565b82525050565b5f602082019050611f6a5f830184611f48565b92915050565b5f7fffffffff0000000000000000000000000000000000000000000000000000000082169050919050565b611fa481611f70565b8114611fae575f80fd5b50565b5f81359050611fbf81611f9b565b92915050565b5f60208284031215611fda57611fd9611e75565b5b5f611fe784828501611fb1565b91505092915050565b5f8115159050919050565b61200481611ff0565b82525050565b5f60208201905061201d5f830184611ffb565b92915050565b5f6020828403121561203857612037611e75565b5b5f61204584828501611ef6565b91505092915050565b5f81519050919050565b5f82825260208201905092915050565b5f5b8381101561208557808201518184015260208101905061206a565b5f8484015250505050565b5f601f19601f8301169050919050565b5f6120aa8261204e565b6120b48185612058565b93506120c4818560208601612068565b6120cd81612090565b840191505092915050565b5f6020820190508181035f8301526120f081846120a0565b905092915050565b5f819050919050565b61210a816120f8565b8114612114575f80fd5b50565b5f8135905061212581612101565b92915050565b5f602082840312156121405761213f611e75565b5b5f61214d84828501612117565b91505092915050565b61215f816120f8565b82525050565b5f6020820190506121785f830184612156565b92915050565b5f80fd5b7f4e487b71000000000000000000000000000000000000000000000000000000005f52604160045260245ffd5b6121b882612090565b810181811067ffffffffffffffff821117156121d7576121d6612182565b5b80604052505050565b5f6121e9611e6c565b90506121f582826121af565b919050565b5f67ffffffffffffffff82111561221457612213612182565b5b602082029050602081019050919050565b5f80fd5b5f61223b612236846121fa565b6121e0565b9050808382526020820190506020840283018581111561225e5761225d612225565b5b835b8181101561228757806122738882611ef6565b845260208401935050602081019050612260565b5050509392505050565b5f82601f8301126122a5576122a461217e565b5b81356122b5848260208601612229565b91505092915050565b5f80fd5b5f67ffffffffffffffff8211156122dc576122db612182565b5b6122e582612090565b9050602081019050919050565b828183375f83830152505050565b5f61231261230d846122c2565b6121e0565b90508281526020810184848401111561232e5761232d6122be565b5b6123398482856122f2565b509392505050565b5f82601f8301126123555761235461217e565b5b8135612365848260208601612300565b91505092915050565b5f805f805f60a0868803121561238757612386611e75565b5b5f61239488828901611ec3565b95505060206123a588828901611ec3565b945050604086013567ffffffffffffffff8111156123c6576123c5611e79565b5b6123d288828901612291565b935050606086013567ffffffffffffffff8111156123f3576123f2611e79565b5b6123ff88828901612291565b925050608086013567ffffffffffffffff8111156124205761241f611e79565b5b61242c88828901612341565b9150509295509295909350565b5f806040838503121561244f5761244e611e75565b5b5f61245c85828601612117565b925050602061246d85828601611ec3565b9150509250929050565b5f67ffffffffffffffff82111561249157612490612182565b5b602082029050602081019050919050565b5f67ffffffffffffffff8211156124bc576124bb612182565b5b6124c582612090565b9050602081019050919050565b5f6124e46124df846124a2565b6121e0565b905082815260208101848484011115612500576124ff6122be565b5b61250b8482856122f2565b509392505050565b5f82601f8301126125275761252661217e565b5b81356125378482602086016124d2565b91505092915050565b5f61255261254d84612477565b6121e0565b9050808382526020820190506020840283018581111561257557612574612225565b5b835b818110156125bc57803567ffffffffffffffff81111561259a5761259961217e565b5b8086016125a78982612513565b85526020850194505050602081019050612577565b5050509392505050565b5f82601f8301126125da576125d961217e565b5b81356125ea848260208601612540565b91505092915050565b5f805f806080858703121561260b5761260a611e75565b5b5f61261887828801611ec3565b945050602085013567ffffffffffffffff81111561263957612638611e79565b5b61264587828801612291565b935050604085013567ffffffffffffffff81111561266657612665611e79565b5b61267287828801612291565b925050606085013567ffffffffffffffff81111561269357612692611e79565b5b61269f878288016125c6565b91505092959194509250565b5f67ffffffffffffffff8211156126c5576126c4612182565b5b602082029050602081019050919050565b5f6126e86126e3846126ab565b6121e0565b9050808382526020820190506020840283018581111561270b5761270a612225565b5b835b8181101561273457806127208882611ec3565b84526020840193505060208101905061270d565b5050509392505050565b5f82601f8301126127525761275161217e565b5b81356127628482602086016126d6565b91505092915050565b5f806040838503121561278157612780611e75565b5b5f83013567ffffffffffffffff81111561279e5761279d611e79565b5b6127aa8582860161273e565b925050602083013567ffffffffffffffff8111156127cb576127ca611e79565b5b6127d785828601612291565b9150509250929050565b5f81519050919050565b5f82825260208201905092915050565b5f819050602082019050919050565b61281381611ed7565b82525050565b5f612824838361280a565b60208301905092915050565b5f602082019050919050565b5f612846826127e1565b61285081856127eb565b935061285b836127fb565b805f5b8381101561288b5781516128728882612819565b975061287d83612830565b92505060018101905061285e565b5085935050505092915050565b5f6020820190508181035f8301526128b0818461283c565b905092915050565b5f805f80608085870312156128d0576128cf611e75565b5b5f6128dd87828801611ec3565b94505060206128ee87828801611ef6565b93505060406128ff87828801611ef6565b925050606085013567ffffffffffffffff8111156129205761291f611e79565b5b61292c87828801612513565b91505092959194509250565b61294181611ff0565b811461294b575f80fd5b50565b5f8135905061295c81612938565b92915050565b5f806040838503121561297857612977611e75565b5b5f61298585828601611ec3565b92505060206129968582860161294e565b9150509250929050565b5f80604083850312156129b6576129b5611e75565b5b5f6129c385828601611ec3565b92505060206129d485828601611ec3565b9150509250929050565b5f805f805f60a086880312156129f7576129f6611e75565b5b5f612a0488828901611ec3565b9550506020612a1588828901611ec3565b9450506040612a2688828901611ef6565b9350506060612a3788828901611ef6565b925050608086013567ffffffffffffffff811115612a5857612a57611e79565b5b612a6488828901612341565b9150509295509295909350565b612a7a81611e9c565b82525050565b5f604082019050612a935f830185612a71565b612aa06020830184612a71565b9392505050565b7f75726973206c656e677468206d69736d617463680000000000000000000000005f82015250565b5f612adb601483612058565b9150612ae682612aa7565b602082019050919050565b5f6020820190508181035f830152612b0881612acf565b9050919050565b7f4e487b71000000000000000000000000000000000000000000000000000000005f52603260045260245ffd5b5f604082019050612b4f5f830185611f48565b612b5c6020830184611f48565b9392505050565b7f4e487b71000000000000000000000000000000000000000000000000000000005f52602260045260245ffd5b5f6002820490506001821680612ba757607f821691505b602082108103612bba57612bb9612b63565b5b50919050565b5f81905092915050565b5f819050815f5260205f209050919050565b5f8154612be881612b90565b612bf28186612bc0565b9450600182165f8114612c0c5760018114612c2157612c53565b60ff1983168652811515820286019350612c53565b612c2a85612bca565b5f5b83811015612c4b57815481890152600182019150602081019050612c2c565b838801955050505b50505092915050565b5f612c668261204e565b612c708185612bc0565b9350612c80818560208601612068565b80840191505092915050565b5f612c978285612bdc565b9150612ca38284612c5c565b91508190509392505050565b5f602082019050612cc25f830184612a71565b92915050565b5f6020601f8301049050919050565b5f82821b905092915050565b5f60088302612d127fffffffffffffffffffffffffffffffffffffffffffffffffffffffffffffffff82612cd7565b612d1c8683612cd7565b95508019841693508086168417925050509392505050565b5f819050919050565b5f612d57612d52612d4d84611ed7565b612d34565b611ed7565b9050919050565b5f819050919050565b612d7083612d3d565b612d84612d7c82612d5e565b848454612ce3565b825550505050565b5f90565b612d98612d8c565b612da3818484612d67565b505050565b5b81811015612dc657612dbb5f82612d90565b600181019050612da9565b5050565b601f821115612e0b57612ddc81612bca565b612de584612cc8565b81016020851015612df4578190505b612e08612e0085612cc8565b830182612da8565b50505b505050565b5f82821c905092915050565b5f612e2b5f1984600802612e10565b1980831691505092915050565b5f612e438383612e1c565b9150826002028217905092915050565b612e5c8261204e565b67ffffffffffffffff811115612e7557612e74612182565b5b612e7f8254612b90565b612e8a828285612dca565b5f60209050601f831160018114612ebb575f8415612ea9578287015190505b612eb38582612e38565b865550612f1a565b601f198416612ec986612bca565b5f5b82811015612ef057848901518255600182019150602085019450602081019050612ecb565b86831015612f0d5784890151612f09601f891682612e1c565b8355505b6001600288020188555050505b505050505050565b5f604082019050612f355f830185612a71565b612f426020830184612156565b9392505050565b5f81519050919050565b5f82825260208201905092915050565b5f612f6d82612f49565b612f778185612f53565b9350612f87818560208601612068565b612f9081612090565b840191505092915050565b5f60a082019050612fae5f830188612a71565b612fbb6020830187612a71565b612fc86040830186611f48565b612fd56060830185611f48565b8181036080830152612fe78184612f63565b90509695505050505050565b5f8151905061300181611f9b565b92915050565b5f6020828403121561301c5761301b611e75565b5b5f61302984828501612ff3565b91505092915050565b5f60a0820190506130455f830188612a71565b6130526020830187612a71565b8181036040830152613064818661283c565b90508181036060830152613078818561283c565b9050818103608083015261308c8184612f63565b90509695505050505050565b7f4e487b71000000000000000000000000000000000000000000000000000000005f52601160045260245ffd5b5f6130cf82611ed7565b91506130da83611ed7565b92508282019050808211156130f2576130f1613098565b5b92915050565b5f60808201905061310b5f830187612a71565b6131186020830186611f48565b6131256040830185611f48565b6131326060830184611f48565b95945050505050565b5f6040820190508181035f830152613153818561283c565b90508181036020830152613167818461283c565b9050939250505056fea2646970667358221220cf9533e3891d2272ac1ba7850b8a53fcfd4ac51538f962e0697e210ef0c0d4fe64736f6c63430008180033","linkReferences":{}},"methodIdentifiers":{"DEFAULT_ADMIN_ROLE()":"a217fddf","MINTER_ROLE()":"d5391393","balanceOf(address,uint256)":"00fdd58e","balanceOfBatch(address[],uint256[])":"4e1273f4","exists(uint256)":"4f558e79","getRoleAdmin(bytes32)":"248a9ca3","grantRole(bytes32,address)":"2f2ff15d","hasRole(bytes32,address)":"91d14854","isApprovedForAll(address,address)":"e985e9c5","mintBatchOrnaments(address,uint256[],uint256[],string[])":"3d802780","mintOrnament(address,uint256,uint256,string)":"63c231f0","renounceRole(bytes32,address)":"36568abe","revokeRole(bytes32,address)":"d547741f","safeBatchTransferFrom(address,address,uint256[],uint256[],bytes)":"2eb2c2d6","safeTransferFrom(address,address,uint256,uint256,bytes)":"f242432a","setApprovalForAll(address,bool)":"a22cb465","supportsInterface(bytes4)":"01ffc9a7","totalSupply()":"18160ddd","totalSupply(uint256)":"bd85b039","uri(uint256)":"0e89341c"},"id":43}