{"abi":[{"type":"constructor","inputs":[],"stateMutability":"nonpayable"},{"type":"function","name":"DEFAULT_ADMIN_ROLE","inputs":[],"outputs":[{"name":"","type":"bytes32","internalType":"bytes32"}],"stateMutability":"view"},{"type":"function","name":"MINTER_ROLE","inputs":[],"outputs":[{"name":"","type":"bytes32","internalType":"bytes32"}],"stateMutability":"view"},{"type":"function","name":"approve","inputs":[{"name":"to","type":"address","internalType":"address"},{"name":"tokenId","type":"uint256","internalType":"uint256"}],"outputs":[],"stateMutability":"nonpayable"},{"type":"function","name":"balanceOf","inputs":[{"name":"owner","type":"address","internalType":"address"}],"outputs":[{"name":"","type":"uint256","internalType":"uint256"}],"stateMutability":"view"},{"type":"function","name":"getApproved","inputs":[{"name":"tokenId","type":"uint256","internalType":"uint256"}],"outputs":[{"name":"","type":"address","internalType":"address"}],"stateMutability":"view"},{"type":"function","name":"getRoleAdmin","inputs":[{"name":"role","type":"bytes32","internalType":"bytes32"}],"outputs":[{"name":"","type":"bytes32","internalType":"bytes32"}],"stateMutability":"view"},{"type":"function","name":"grantRole","inputs":[{"name":"role","type":"bytes32","internalType":"bytes32"},{"name":"account","type":"address","internalType":"address"}],"outputs":[],"stateMutability":"nonpayable"},{"type":"function","name":"hasRole","inputs":[{"name":"role","type":"bytes32","internalType":"bytes32"},{"name":"account","type":"address","internalType":"address"}],"outputs":[{"name":"","type":"bool","internalType":"bool"}],"stateMutability":"view"},{"type":"function","name":"isApprovedForAll","inputs":[{"name":"owner","type":"address","internalType":"address"},{"name":"operator","type":"address","internalType":"address"}],"outputs":[{"name":"","type":"bool","internalType":"bool"}],"stateMutability":"view"},{"type":"function","name":"mintOrnament","inputs":[{"name":"to","type":"address","internalType":"address"},{"name":"ornamentId","type":"string","internalType":"string"},{"name":"uri","type":"string","internalType":"string"}],"outputs":[{"name":"tokenId","type":"uint256","internalType":"uint256"}],"stateMutability":"nonpayable"},{"type":"function","name":"name","inputs":[],"outputs":[{"name":"","type":"string","internalType":"string"}],"stateMutability":"view"},{"type":"function","name":"ornamentIdToTokenId","inputs":[{"name":"","type":"string","internalType":"string"}],"outputs":[{"name":"","type":"uint256","internalType":"uint256"}],"stateMutability":"view"},{"type":"function","name":"ownerOf","inputs":[{"name":"tokenId","type":"uint256","internalType":"uint256"}],"outputs":[{"name":"","type":"address","internalType":"address"}],"stateMutability":"view"},{"type":"function","name":"renounceRole","inputs":[{"name":"role","type":"bytes32","internalType":"bytes32"},{"name":"callerConfirmation","type":"address","internalType":"address"}],"outputs":[],"stateMutability":"nonpayable"},{"type":"function","name":"revokeRole","inputs":[{"name":"role","type":"bytes32","internalType":"bytes32"},{"name":"account","type":"address","internalType":"address"}],"outputs":[],"stateMutability":"nonpayable"},{"type":"function","name":"safeTransferFrom","inputs":[{"name":"from","type":"address","internalType":"address"},{"name":"to","type":"address","internalType":"address"},{"name":"tokenId","type":"uint256","internalType":"uint256"}],"outputs":[],"stateMutability":"nonpayable"},{"type":"function","name":"safeTransferFrom","inputs":[{"name":"from","type":"address","internalType":"address"},{"name":"to","type":"address","internalType":"address"},{"name":"tokenId","type":"uint256","internalType":"uint256"},{"name":"data","type":"bytes","internalType":"bytes"}],"outputs":[],"stateMutability":"nonpayable"},{"type":"function","name":"setApprovalForAll","inputs":[{"name":"operator","type":"address","internalType":"address"},{"name":"approved","type":"bool","internalType":"bool"}],"outputs":[],"stateMutability":"nonpayable"},{"type":"function","name":"supportsInterface","inputs":[{"name":"interfaceId","type":"bytes4","internalType":"bytes4"}],"outputs":[{"name":"","type":"bool","internalType":"bool"}],"stateMutability":"view"},{"type":"function","name":"symbol","inputs":[],"outputs":[{"name":"","type":"string","internalType":"string"}],"stateMutability":"view"},{"type":"function","name":"tokenByIndex","inputs":[{"name":"index","type":"uint256","internalType":"uint256"}],"outputs":[{"name":"","type":"uint256","internalType":"uint256"}],"stateMutability":"view"},{"type":"function","name":"tokenOfOwnerByIndex","inputs":[{"name":"owner","type":"address","internalType":"address"},{"name":"index","type":"uint256","internalType":"uint256"}],"outputs":[{"name":"","type":"uint256","internalType":"uint256"}],"stateMutability":"view"},{"type":"function","name":"tokenURI","inputs":[{"name":"tokenId","type":"uint256","internalType":"uint256"}],"outputs":[{"name":"","type":"string","internalType":"string"}],"stateMutability":"view"},{"type":"function","name":"totalSupply","inputs":[],"outputs":[{"name":"","type":"uint256","internalType":"uint256"}],"stateMutability":"view"},{"type":"function","name":"transferFrom","inputs":[{"name":"from","type":"address","internalType":"address"},{"name":"to","type":"address","internalType":"address"},{"name":"tokenId","type":"uint256","internalType":"uint256"}],"outputs":[],"stateMutability":"nonpayable"},{"type":"event","name":"Approval","inputs":[{"name":"owner","type":"address","indexed":true,"internalType":"address"},{"name":"approved","type":"address","indexed":true,"internalType":"address"},{"name":"tokenId","type":"uint256","indexed":true,"internalType":"uint256"}],"anonymous":false},{"type":"event","name":"ApprovalForAll","inputs":[{"name":"owner","type":"address","indexed":true,"internalType":"address"},{"name":"operator","type":"address","indexed":true,"internalType":"address"},{"name":"approved","type":"bool","indexed":false,"internalType":"bool"}],"anonymous":false},{"type":"event","name":"BatchMetadataUpdate","inputs":[{"name":"_fromTokenId","type":"uint256","indexed":false,"internalType":"uint256"},{"name":"_toTokenId","type":"uint256","indexed":false,"internalType":"uint256"}],"anonymous":false},{"type":"event","name":"MetadataUpdate","inputs":[{"name":"_tokenId","type":"uint256","indexed":false,"internalType":"uint256"}],"anonymous":false},{"type":"event","name":"OrnamentMinted","inputs":[{"name":"ornamentId","type":"string","indexed":true,"internalType":"string"},{"name":"tokenId","type":"uint256","indexed":true,"internalType":"uint256"},{"name":"to","type":"address","indexed":true,"internalType":"address"}],"anonymous":false},{"type":"event","name":"RoleAdminChanged","inputs":[{"name":"role","type":"bytes32","indexed":true,"internalType":"bytes32"},{"name":"previousAdminRole","type":"bytes32","indexed":true,"internalType":"bytes32"},{"name":"newAdminRole","type":"bytes32","indexed":true,"internalType":"bytes32"}],"anonymous":false},{"type":"event","name":"RoleGranted","inputs":[{"name":"role","type":"bytes32","indexed":true,"internalType":"bytes32"},{"name":"account","type":"address","indexed":true,"internalType":"address"},{"name":"sender","type":"address","indexed":true,"internalType":"address"}],"anonymous":false},{"type":"event","name":"RoleRevoked","inputs":[{"name":"role","type":"bytes32","indexed":true,"internalType":"bytes32"},{"name":"account","type":"address","indexed":true,"internalType":"address"},{"name":"sender","type":"address","indexed":true,"internalType":"address"}],"anonymous":false},{"type":"event","name":"Transfer","inputs":[{"name":"from","type":"address","indexed":true,"internalType":"address"},{"name":"to","type":"address","indexed":true,"internalType":"address"},{"name":"tokenId","type":"uint256","indexed":true,"internalType":"uint256"}],"anonymous":false},{"type":"error","name":"AccessControlBadConfirmation","inputs":[]},{"type":"error","name":"AccessControlUnauthorizedAccount","inputs":[{"name":"account","type":"address","internalType":"address"},{"name":"neededRole","type":"bytes32","internalType":"bytes32"}]},{"type":"error","name":"ERC721EnumerableForbiddenBatchMint","inputs":[]},{"type":"error","name":"ERC721IncorrectOwner","inputs":[{"name":"sender","type":"address","internalType":"address"},{"name":"tokenId","type":"uint256","internalType":"uint256"},{"name":"owner","type":"address","internalType":"address"}]},{"type":"error","name":"ERC721InsufficientApproval","inputs":[{"name":"operator","type":"address","internalType":"address"},{"name":"tokenId","type":"uint256","internalType":"uint256"}]},{"type":"error","name":"ERC721InvalidApprover","inputs":[{"name":"approver","type":"address","internalType":"address"}]},{"type":"error","name":"ERC721InvalidOperator","inputs":[{"name":"operator","type":"address","internalType":"address"}]},{"type":"error","name":"ERC721InvalidOwner","inputs":[{"name":"owner","type":"address","internalType":"address"}]},{"type":"error","name":"ERC721InvalidReceiver","inputs":[{"name":"receiver","type":"address","internalType":"address"}]},{"type":"error","name":"ERC721InvalidSender","inputs":[{"name":"sender","type":"address","internalType":"address"}]},{"type":"error","name":"ERC721NonexistentToken","inputs":[{"name":"tokenId","type":"uint256","internalType":"uint256"}]},{"type":"error","name":"ERC721OutOfBoundsIndex","inputs":[{"name":"owner","type":"address","internalType":"address"},{"name":"index","type":"uint256","internalType":"uint256"}]}],"bytecode":{"object":"0x60806040526001600c5534801562000015575f80fd5b506040518060400160405280600d81526020017f5a657461204f726e616d656e74000000000000000000000000000000000000008152506040518060400160405280600481526020017f5a4f524e00000000000000000000000000000000000000000000000000000000815250815f9081620000929190620004c0565b508060019081620000a49190620004c0565b505050620000bb5f801b33620000f560201b60201c565b50620000ee7f9f2df0fed2c77648de5860a4cc508cd0818c85b8b8a1ab4ceeef8d981c8956a633620000f560201b60201c565b50620005a4565b5f620001088383620001f160201b60201c565b620001e7576001600b5f8581526020019081526020015f205f015f8473ffffffffffffffffffffffffffffffffffffffff1673ffffffffffffffffffffffffffffffffffffffff1681526020019081526020015f205f6101000a81548160ff021916908315150217905550620001836200025560201b60201c565b73ffffffffffffffffffffffffffffffffffffffff168273ffffffffffffffffffffffffffffffffffffffff16847f2f8788117e7eff1d82e926ec794901d17c78024a50270940304540a733656f0d60405160405180910390a460019050620001eb565b5f90505b92915050565b5f600b5f8481526020019081526020015f205f015f8373ffffffffffffffffffffffffffffffffffffffff1673ffffffffffffffffffffffffffffffffffffffff1681526020019081526020015f205f9054906101000a900460ff16905092915050565b5f33905090565b5f81519050919050565b7f4e487b71000000000000000000000000000000000000000000000000000000005f52604160045260245ffd5b7f4e487b71000000000000000000000000000000000000000000000000000000005f52602260045260245ffd5b5f6002820490506001821680620002d857607f821691505b602082108103620002ee57620002ed62000293565b5b50919050565b5f819050815f5260205f209050919050565b5f6020601f8301049050919050565b5f82821b905092915050565b5f60088302620003527fffffffffffffffffffffffffffffffffffffffffffffffffffffffffffffffff8262000315565b6200035e868362000315565b95508019841693508086168417925050509392505050565b5f819050919050565b5f819050919050565b5f620003a8620003a26200039c8462000376565b6200037f565b62000376565b9050919050565b5f819050919050565b620003c38362000388565b620003db620003d282620003af565b84845462000321565b825550505050565b5f90565b620003f1620003e3565b620003fe818484620003b8565b505050565b5b818110156200042557620004195f82620003e7565b60018101905062000404565b5050565b601f82111562000474576200043e81620002f4565b620004498462000306565b8101602085101562000459578190505b62000471620004688562000306565b83018262000403565b50505b505050565b5f82821c905092915050565b5f620004965f198460080262000479565b1980831691505092915050565b5f620004b0838362000485565b9150826002028217905092915050565b620004cb826200025c565b67ffffffffffffffff811115620004e757620004e662000266565b5b620004f38254620002c0565b6200050082828562000429565b5f60209050601f83116001811462000536575f841562000521578287015190505b6200052d8582620004a3565b8655506200059c565b601f1984166200054686620002f4565b5f5b828110156200056f5784890151825560018201915060208501945060208101905062000548565b868310156200058f57848901516200058b601f89168262000485565b8355505b6001600288020188555050505b505050505050565b61333580620005b25f395ff3fe608060405234801561000f575f80fd5b5060043610610171575f3560e01c80636352211e116100dc578063a217fddf11610095578063c87b56dd1161006f578063c87b56dd14610491578063d5391393146104c1578063d547741f146104df578063e985e9c5146104fb57610171565b8063a217fddf1461043b578063a22cb46514610459578063b88d4fde1461047557610171565b80636352211e1461032d57806370a082311461035d57806391d148541461038d57806395d89b41146103bd5780639a5355b6146103db5780639fab6c1c1461040b57610171565b8063248a9ca31161012e578063248a9ca3146102495780632f2ff15d146102795780632f745c591461029557806336568abe146102c557806342842e0e146102e15780634f6ccce7146102fd57610171565b806301ffc9a71461017557806306fdde03146101a5578063081812fc146101c3578063095ea7b3146101f357806318160ddd1461020f57806323b872dd1461022d575b5f80fd5b61018f600480360381019061018a91906124f7565b61052b565b60405161019c919061253c565b60405180910390f35b6101ad61053c565b6040516101ba91906125df565b60405180910390f35b6101dd60048036038101906101d89190612632565b6105cb565b6040516101ea919061269c565b60405180910390f35b61020d600480360381019061020891906126df565b6105e6565b005b6102176105fc565b604051610224919061272c565b60405180910390f35b61024760048036038101906102429190612745565b610608565b005b610263600480360381019061025e91906127c8565b610707565b6040516102709190612802565b60405180910390f35b610293600480360381019061028e919061281b565b610724565b005b6102af60048036038101906102aa91906126df565b610746565b6040516102bc919061272c565b60405180910390f35b6102df60048036038101906102da919061281b565b6107ea565b005b6102fb60048036038101906102f69190612745565b610865565b005b61031760048036038101906103129190612632565b610884565b604051610324919061272c565b60405180910390f35b61034760048036038101906103429190612632565b6108f6565b604051610354919061269c565b60405180910390f35b61037760048036038101906103729190612859565b610907565b604051610384919061272c565b60405180910390f35b6103a760048036038101906103a2919061281b565b6109bd565b6040516103b4919061253c565b60405180910390f35b6103c5610a21565b6040516103d291906125df565b60405180910390f35b6103f560048036038101906103f091906129b0565b610ab1565b604051610402919061272c565b60405180910390f35b61042560048036038101906104209190612a54565b610ade565b604051610432919061272c565b60405180910390f35b610443610c65565b6040516104509190612802565b60405180910390f35b610473600480360381019061046e9190612b0f565b610c6b565b005b61048f600480360381019061048a9190612beb565b610c81565b005b6104ab60048036038101906104a69190612632565b610ca6565b6040516104b891906125df565b60405180910390f35b6104c9610cb8565b6040516104d69190612802565b60405180910390f35b6104f960048036038101906104f4919061281b565b610cdc565b005b61051560048036038101906105109190612c6b565b610cfe565b604051610522919061253c565b60405180910390f35b5f61053582610d8c565b9050919050565b60605f805461054a90612cd6565b80601f016020809104026020016040519081016040528092919081815260200182805461057690612cd6565b80156105c15780601f10610598576101008083540402835291602001916105c1565b820191905f5260205f20905b8154815290600101906020018083116105a457829003601f168201915b5050505050905090565b5f6105d582610e05565b506105df82610e8b565b9050919050565b6105f882826105f3610ec4565b610ecb565b5050565b5f600880549050905090565b5f73ffffffffffffffffffffffffffffffffffffffff168273ffffffffffffffffffffffffffffffffffffffff1603610678575f6040517f64a0ae9200000000000000000000000000000000000000000000000000000000815260040161066f919061269c565b60405180910390fd5b5f61068b8383610686610ec4565b610edd565b90508373ffffffffffffffffffffffffffffffffffffffff168173ffffffffffffffffffffffffffffffffffffffff1614610701578382826040517f64283d7b0000000000000000000000000000000000000000000000000000000081526004016106f893929190612d06565b60405180910390fd5b50505050565b5f600b5f8381526020019081526020015f20600101549050919050565b61072d82610707565b61073681610ef2565b6107408383610f06565b50505050565b5f61075083610907565b82106107955782826040517fa57d13dc00000000000000000000000000000000000000000000000000000000815260040161078c929190612d3b565b60405180910390fd5b60065f8473ffffffffffffffffffffffffffffffffffffffff1673ffffffffffffffffffffffffffffffffffffffff1681526020019081526020015f205f8381526020019081526020015f2054905092915050565b6107f2610ec4565b73ffffffffffffffffffffffffffffffffffffffff168173ffffffffffffffffffffffffffffffffffffffff1614610856576040517f6697b23200000000000000000000000000000000000000000000000000000000815260040160405180910390fd5b6108608282610ff0565b505050565b61087f83838360405180602001604052805f815250610c81565b505050565b5f61088d6105fc565b82106108d2575f826040517fa57d13dc0000000000000000000000000000000000000000000000000000000081526004016108c9929190612d3b565b60405180910390fd5b600882815481106108e6576108e5612d62565b5b905f5260205f2001549050919050565b5f61090082610e05565b9050919050565b5f8073ffffffffffffffffffffffffffffffffffffffff168273ffffffffffffffffffffffffffffffffffffffff1603610978575f6040517f89c62b6400000000000000000000000000000000000000000000000000000000815260040161096f919061269c565b60405180910390fd5b60035f8373ffffffffffffffffffffffffffffffffffffffff1673ffffffffffffffffffffffffffffffffffffffff1681526020019081526020015f20549050919050565b5f600b5f8481526020019081526020015f205f015f8373ffffffffffffffffffffffffffffffffffffffff1673ffffffffffffffffffffffffffffffffffffffff1681526020019081526020015f205f9054906101000a900460ff16905092915050565b606060018054610a3090612cd6565b80601f0160208091040260200160405190810160405280929190818152602001828054610a5c90612cd6565b8015610aa75780601f10610a7e57610100808354040283529160200191610aa7565b820191905f5260205f20905b815481529060010190602001808311610a8a57829003601f168201915b5050505050905090565b600d818051602081018201805184825260208301602085012081835280955050505050505f915090505481565b5f7f9f2df0fed2c77648de5860a4cc508cd0818c85b8b8a1ab4ceeef8d981c8956a6610b0981610ef2565b5f600d8787604051610b1c929190612dbd565b90815260200160405180910390205414610b6b576040517f08c379a0000000000000000000000000000000000000000000000000000000008152600401610b6290612e1f565b60405180910390fd5b600c5f815480929190610b7d90612e6a565b91905055915081600d8787604051610b96929190612dbd565b908152602001604051809103902081905550610bb287836110da565b610bff8285858080601f0160208091040260200160405190810160405280939291908181526020018383808284375f81840152601f19601f820116905080830192505050505050506110f7565b8673ffffffffffffffffffffffffffffffffffffffff16828787604051610c27929190612dbd565b60405180910390207f606a58667f7afb49d41830d9b41dd34915e07b5f90d671066b04a85e8ce8383260405160405180910390a45095945050505050565b5f801b81565b610c7d610c76610ec4565b8383611151565b5050565b610c8c848484610608565b610ca0610c97610ec4565b858585856112ba565b50505050565b6060610cb182611466565b9050919050565b7f9f2df0fed2c77648de5860a4cc508cd0818c85b8b8a1ab4ceeef8d981c8956a681565b610ce582610707565b610cee81610ef2565b610cf88383610ff0565b50505050565b5f60055f8473ffffffffffffffffffffffffffffffffffffffff1673ffffffffffffffffffffffffffffffffffffffff1681526020019081526020015f205f8373ffffffffffffffffffffffffffffffffffffffff1673ffffffffffffffffffffffffffffffffffffffff1681526020019081526020015f205f9054906101000a900460ff16905092915050565b5f7f7965db0b000000000000000000000000000000000000000000000000000000007bffffffffffffffffffffffffffffffffffffffffffffffffffffffff1916827bffffffffffffffffffffffffffffffffffffffffffffffffffffffff19161480610dfe5750610dfd82611571565b5b9050919050565b5f80610e10836115d1565b90505f73ffffffffffffffffffffffffffffffffffffffff168173ffffffffffffffffffffffffffffffffffffffff1603610e8257826040517f7e273289000000000000000000000000000000000000000000000000000000008152600401610e79919061272c565b60405180910390fd5b80915050919050565b5f60045f8381526020019081526020015f205f9054906101000a900473ffffffffffffffffffffffffffffffffffffffff169050919050565b5f33905090565b610ed8838383600161160a565b505050565b5f610ee98484846117c9565b90509392505050565b610f0381610efe610ec4565b6118e3565b50565b5f610f1183836109bd565b610fe6576001600b5f8581526020019081526020015f205f015f8473ffffffffffffffffffffffffffffffffffffffff1673ffffffffffffffffffffffffffffffffffffffff1681526020019081526020015f205f6101000a81548160ff021916908315150217905550610f83610ec4565b73ffffffffffffffffffffffffffffffffffffffff168273ffffffffffffffffffffffffffffffffffffffff16847f2f8788117e7eff1d82e926ec794901d17c78024a50270940304540a733656f0d60405160405180910390a460019050610fea565b5f90505b92915050565b5f610ffb83836109bd565b156110d0575f600b5f8581526020019081526020015f205f015f8473ffffffffffffffffffffffffffffffffffffffff1673ffffffffffffffffffffffffffffffffffffffff1681526020019081526020015f205f6101000a81548160ff02191690831515021790555061106d610ec4565b73ffffffffffffffffffffffffffffffffffffffff168273ffffffffffffffffffffffffffffffffffffffff16847ff6391f5c32d9c69d2a47ea670b442974b53935d1edc7fd64eb21e047a839171b60405160405180910390a4600190506110d4565b5f90505b92915050565b6110f3828260405180602001604052805f815250611934565b5050565b80600a5f8481526020019081526020015f209081611115919061304e565b507ff8e1a15aba9398e019f0b49df1a4fde98ee17ae345cb5f6b5e2c27f5033e8ce782604051611145919061272c565b60405180910390a15050565b5f73ffffffffffffffffffffffffffffffffffffffff168273ffffffffffffffffffffffffffffffffffffffff16036111c157816040517f5b08ba180000000000000000000000000000000000000000000000000000000081526004016111b8919061269c565b60405180910390fd5b8060055f8573ffffffffffffffffffffffffffffffffffffffff1673ffffffffffffffffffffffffffffffffffffffff1681526020019081526020015f205f8473ffffffffffffffffffffffffffffffffffffffff1673ffffffffffffffffffffffffffffffffffffffff1681526020019081526020015f205f6101000a81548160ff0219169083151502179055508173ffffffffffffffffffffffffffffffffffffffff168373ffffffffffffffffffffffffffffffffffffffff167f17307eab39ab6107e8899845ad3d59bd9653f200f220920489ca2b5937696c31836040516112ad919061253c565b60405180910390a3505050565b5f8373ffffffffffffffffffffffffffffffffffffffff163b111561145f578273ffffffffffffffffffffffffffffffffffffffff1663150b7a02868685856040518563ffffffff1660e01b8152600401611318949392919061316f565b6020604051808303815f875af192505050801561135357506040513d601f19601f8201168201806040525081019061135091906131cd565b60015b6113d4573d805f8114611381576040519150601f19603f3d011682016040523d82523d5f602084013e611386565b606091505b505f8151036113cc57836040517f64a0ae920000000000000000000000000000000000000000000000000000000081526004016113c3919061269c565b60405180910390fd5b805181602001fd5b63150b7a0260e01b7bffffffffffffffffffffffffffffffffffffffffffffffffffffffff1916817bffffffffffffffffffffffffffffffffffffffffffffffffffffffff19161461145d57836040517f64a0ae92000000000000000000000000000000000000000000000000000000008152600401611454919061269c565b60405180910390fd5b505b5050505050565b606061147182610e05565b505f600a5f8481526020019081526020015f20805461148f90612cd6565b80601f01602080910402602001604051908101604052809291908181526020018280546114bb90612cd6565b80156115065780601f106114dd57610100808354040283529160200191611506565b820191905f5260205f20905b8154815290600101906020018083116114e957829003601f168201915b505050505090505f611516611957565b90505f81510361152a57819250505061156c565b5f8251111561155e578082604051602001611546929190613228565b6040516020818303038152906040529250505061156c565b6115678461196d565b925050505b919050565b5f634906490660e01b7bffffffffffffffffffffffffffffffffffffffffffffffffffffffff1916827bffffffffffffffffffffffffffffffffffffffffffffffffffffffff191614806115ca57506115c9826119d3565b5b9050919050565b5f60025f8381526020019081526020015f205f9054906101000a900473ffffffffffffffffffffffffffffffffffffffff169050919050565b808061164257505f73ffffffffffffffffffffffffffffffffffffffff168273ffffffffffffffffffffffffffffffffffffffff1614155b15611774575f61165184610e05565b90505f73ffffffffffffffffffffffffffffffffffffffff168373ffffffffffffffffffffffffffffffffffffffff16141580156116bb57508273ffffffffffffffffffffffffffffffffffffffff168173ffffffffffffffffffffffffffffffffffffffff1614155b80156116ce57506116cc8184610cfe565b155b1561171057826040517fa9fbf51f000000000000000000000000000000000000000000000000000000008152600401611707919061269c565b60405180910390fd5b811561177257838573ffffffffffffffffffffffffffffffffffffffff168273ffffffffffffffffffffffffffffffffffffffff167f8c5be1e5ebec7d5bd14f71427d1e84f3dd0314c0f7b2291e5b200ac8c7c3b92560405160405180910390a45b505b8360045f8581526020019081526020015f205f6101000a81548173ffffffffffffffffffffffffffffffffffffffff021916908373ffffffffffffffffffffffffffffffffffffffff16021790555050505050565b5f806117d6858585611a4c565b90505f73ffffffffffffffffffffffffffffffffffffffff168173ffffffffffffffffffffffffffffffffffffffff16036118195761181484611c57565b611858565b8473ffffffffffffffffffffffffffffffffffffffff168173ffffffffffffffffffffffffffffffffffffffff1614611857576118568185611c9b565b5b5b5f73ffffffffffffffffffffffffffffffffffffffff168573ffffffffffffffffffffffffffffffffffffffff16036118995761189484611d72565b6118d8565b8473ffffffffffffffffffffffffffffffffffffffff168173ffffffffffffffffffffffffffffffffffffffff16146118d7576118d68585611e32565b5b5b809150509392505050565b6118ed82826109bd565b6119305780826040517fe2517d3f00000000000000000000000000000000000000000000000000000000815260040161192792919061324b565b60405180910390fd5b5050565b61193e8383611eb6565b611952611949610ec4565b5f8585856112ba565b505050565b606060405180602001604052805f815250905090565b606061197882610e05565b505f611982611957565b90505f8151116119a05760405180602001604052805f8152506119cb565b806119aa84611fa9565b6040516020016119bb929190613228565b6040516020818303038152906040525b915050919050565b5f7f780e9d63000000000000000000000000000000000000000000000000000000007bffffffffffffffffffffffffffffffffffffffffffffffffffffffff1916827bffffffffffffffffffffffffffffffffffffffffffffffffffffffff19161480611a455750611a4482612073565b5b9050919050565b5f80611a57846115d1565b90505f73ffffffffffffffffffffffffffffffffffffffff168373ffffffffffffffffffffffffffffffffffffffff1614611a9857611a97818486612154565b5b5f73ffffffffffffffffffffffffffffffffffffffff168173ffffffffffffffffffffffffffffffffffffffff1614611b2357611ad75f855f8061160a565b600160035f8373ffffffffffffffffffffffffffffffffffffffff1673ffffffffffffffffffffffffffffffffffffffff1681526020019081526020015f205f82825403925050819055505b5f73ffffffffffffffffffffffffffffffffffffffff168573ffffffffffffffffffffffffffffffffffffffff1614611ba257600160035f8773ffffffffffffffffffffffffffffffffffffffff1673ffffffffffffffffffffffffffffffffffffffff1681526020019081526020015f205f82825401925050819055505b8460025f8681526020019081526020015f205f6101000a81548173ffffffffffffffffffffffffffffffffffffffff021916908373ffffffffffffffffffffffffffffffffffffffff160217905550838573ffffffffffffffffffffffffffffffffffffffff168273ffffffffffffffffffffffffffffffffffffffff167fddf252ad1be2c89b69c2b068fc378daa952ba7f163c4a11628f55a4df523b3ef60405160405180910390a4809150509392505050565b60088054905060095f8381526020019081526020015f2081905550600881908060018154018082558091505060019003905f5260205f20015f909190919091505550565b5f611ca583610907565b90505f60075f8481526020019081526020015f205490505f60065f8673ffffffffffffffffffffffffffffffffffffffff1673ffffffffffffffffffffffffffffffffffffffff1681526020019081526020015f209050828214611d44575f815f8581526020019081526020015f2054905080825f8581526020019081526020015f20819055508260075f8381526020019081526020015f2081905550505b60075f8581526020019081526020015f205f9055805f8481526020019081526020015f205f90555050505050565b5f6001600880549050611d859190613272565b90505f60095f8481526020019081526020015f205490505f60088381548110611db157611db0612d62565b5b905f5260205f20015490508060088381548110611dd157611dd0612d62565b5b905f5260205f2001819055508160095f8381526020019081526020015f208190555060095f8581526020019081526020015f205f90556008805480611e1957611e186132a5565b5b600190038181905f5260205f20015f9055905550505050565b5f6001611e3e84610907565b611e489190613272565b90508160065f8573ffffffffffffffffffffffffffffffffffffffff1673ffffffffffffffffffffffffffffffffffffffff1681526020019081526020015f205f8381526020019081526020015f20819055508060075f8481526020019081526020015f2081905550505050565b5f73ffffffffffffffffffffffffffffffffffffffff168273ffffffffffffffffffffffffffffffffffffffff1603611f26575f6040517f64a0ae92000000000000000000000000000000000000000000000000000000008152600401611f1d919061269c565b60405180910390fd5b5f611f3283835f610edd565b90505f73ffffffffffffffffffffffffffffffffffffffff168173ffffffffffffffffffffffffffffffffffffffff1614611fa4575f6040517f73c6ac6e000000000000000000000000000000000000000000000000000000008152600401611f9b919061269c565b60405180910390fd5b505050565b60605f6001611fb784612217565b0190505f8167ffffffffffffffff811115611fd557611fd461288c565b5b6040519080825280601f01601f1916602001820160405280156120075781602001600182028036833780820191505090505b5090505f82602001820190505b600115612068578080600190039150507f3031323334353637383961626364656600000000000000000000000000000000600a86061a8153600a858161205d5761205c6132d2565b5b0494505f8503612014575b819350505050919050565b5f7f80ac58cd000000000000000000000000000000000000000000000000000000007bffffffffffffffffffffffffffffffffffffffffffffffffffffffff1916827bffffffffffffffffffffffffffffffffffffffffffffffffffffffff1916148061213d57507f5b5e139f000000000000000000000000000000000000000000000000000000007bffffffffffffffffffffffffffffffffffffffffffffffffffffffff1916827bffffffffffffffffffffffffffffffffffffffffffffffffffffffff1916145b8061214d575061214c82612368565b5b9050919050565b61215f8383836123d1565b612212575f73ffffffffffffffffffffffffffffffffffffffff168373ffffffffffffffffffffffffffffffffffffffff16036121d357806040517f7e2732890000000000000000000000000000000000000000000000000000000081526004016121ca919061272c565b60405180910390fd5b81816040517f177e802f000000000000000000000000000000000000000000000000000000008152600401612209929190612d3b565b60405180910390fd5b505050565b5f805f90507a184f03e93ff9f4daa797ed6e38ed64bf6a1f0100000000000000008310612273577a184f03e93ff9f4daa797ed6e38ed64bf6a1f0100000000000000008381612269576122686132d2565b5b0492506040810190505b6d04ee2d6d415b85acef810000000083106122b0576d04ee2d6d415b85acef810000000083816122a6576122a56132d2565b5b0492506020810190505b662386f26fc1000083106122df57662386f26fc1000083816122d5576122d46132d2565b5b0492506010810190505b6305f5e1008310612308576305f5e10083816122fe576122fd6132d2565b5b0492506008810190505b612710831061232d576127108381612323576123226132d2565b5b0492506004810190505b606483106123505760648381612346576123456132d2565b5b0492506002810190505b600a831061235f576001810190505b80915050919050565b5f7f01ffc9a7000000000000000000000000000000000000000000000000000000007bffffffffffffffffffffffffffffffffffffffffffffffffffffffff1916827bffffffffffffffffffffffffffffffffffffffffffffffffffffffff1916149050919050565b5f8073ffffffffffffffffffffffffffffffffffffffff168373ffffffffffffffffffffffffffffffffffffffff161415801561248857508273ffffffffffffffffffffffffffffffffffffffff168473ffffffffffffffffffffffffffffffffffffffff16148061244957506124488484610cfe565b5b8061248757508273ffffffffffffffffffffffffffffffffffffffff1661246f83610e8b565b73ffffffffffffffffffffffffffffffffffffffff16145b5b90509392505050565b5f604051905090565b5f80fd5b5f80fd5b5f7fffffffff0000000000000000000000000000000000000000000000000000000082169050919050565b6124d6816124a2565b81146124e0575f80fd5b50565b5f813590506124f1816124cd565b92915050565b5f6020828403121561250c5761250b61249a565b5b5f612519848285016124e3565b91505092915050565b5f8115159050919050565b61253681612522565b82525050565b5f60208201905061254f5f83018461252d565b92915050565b5f81519050919050565b5f82825260208201905092915050565b5f5b8381101561258c578082015181840152602081019050612571565b5f8484015250505050565b5f601f19601f8301169050919050565b5f6125b182612555565b6125bb818561255f565b93506125cb81856020860161256f565b6125d481612597565b840191505092915050565b5f6020820190508181035f8301526125f781846125a7565b905092915050565b5f819050919050565b612611816125ff565b811461261b575f80fd5b50565b5f8135905061262c81612608565b92915050565b5f602082840312156126475761264661249a565b5b5f6126548482850161261e565b91505092915050565b5f73ffffffffffffffffffffffffffffffffffffffff82169050919050565b5f6126868261265d565b9050919050565b6126968161267c565b82525050565b5f6020820190506126af5f83018461268d565b92915050565b6126be8161267c565b81146126c8575f80fd5b50565b5f813590506126d9816126b5565b92915050565b5f80604083850312156126f5576126f461249a565b5b5f612702858286016126cb565b92505060206127138582860161261e565b9150509250929050565b612726816125ff565b82525050565b5f60208201905061273f5f83018461271d565b92915050565b5f805f6060848603121561275c5761275b61249a565b5b5f612769868287016126cb565b935050602061277a868287016126cb565b925050604061278b8682870161261e565b9150509250925092565b5f819050919050565b6127a781612795565b81146127b1575f80fd5b50565b5f813590506127c28161279e565b92915050565b5f602082840312156127dd576127dc61249a565b5b5f6127ea848285016127b4565b91505092915050565b6127fc81612795565b82525050565b5f6020820190506128155f8301846127f3565b92915050565b5f80604083850312156128315761283061249a565b5b5f61283e858286016127b4565b925050602061284f858286016126cb565b9150509250929050565b5f6020828403121561286e5761286d61249a565b5b5f61287b848285016126cb565b91505092915050565b5f80fd5b5f80fd5b7f4e487b71000000000000000000000000000000000000000000000000000000005f52604160045260245ffd5b6128c282612597565b810181811067ffffffffffffffff821117156128e1576128e061288c565b5b80604052505050565b5f6128f3612491565b90506128ff82826128b9565b919050565b5f67ffffffffffffffff82111561291e5761291d61288c565b5b61292782612597565b9050602081019050919050565b828183375f83830152505050565b5f61295461294f84612904565b6128ea565b9050828152602081018484840111156129705761296f612888565b5b61297b848285612934565b509392505050565b5f82601f83011261299757612996612884565b5b81356129a7848260208601612942565b91505092915050565b5f602082840312156129c5576129c461249a565b5b5f82013567ffffffffffffffff8111156129e2576129e161249e565b5b6129ee84828501612983565b91505092915050565b5f80fd5b5f80fd5b5f8083601f840112612a1457612a13612884565b5b8235905067ffffffffffffffff811115612a3157612a306129f7565b5b602083019150836001820283011115612a4d57612a4c6129fb565b5b9250929050565b5f805f805f60608688031215612a6d57612a6c61249a565b5b5f612a7a888289016126cb565b955050602086013567ffffffffffffffff811115612a9b57612a9a61249e565b5b612aa7888289016129ff565b9450945050604086013567ffffffffffffffff811115612aca57612ac961249e565b5b612ad6888289016129ff565b92509250509295509295909350565b612aee81612522565b8114612af8575f80fd5b50565b5f81359050612b0981612ae5565b92915050565b5f8060408385031215612b2557612b2461249a565b5b5f612b32858286016126cb565b9250506020612b4385828601612afb565b9150509250929050565b5f67ffffffffffffffff821115612b6757612b6661288c565b5b612b7082612597565b9050602081019050919050565b5f612b8f612b8a84612b4d565b6128ea565b905082815260208101848484011115612bab57612baa612888565b5b612bb6848285612934565b509392505050565b5f82601f830112612bd257612bd1612884565b5b8135612be2848260208601612b7d565b91505092915050565b5f805f8060808587031215612c0357612c0261249a565b5b5f612c10878288016126cb565b9450506020612c21878288016126cb565b9350506040612c328782880161261e565b925050606085013567ffffffffffffffff811115612c5357612c5261249e565b5b612c5f87828801612bbe565b91505092959194509250565b5f8060408385031215612c8157612c8061249a565b5b5f612c8e858286016126cb565b9250506020612c9f858286016126cb565b9150509250929050565b7f4e487b71000000000000000000000000000000000000000000000000000000005f52602260045260245ffd5b5f6002820490506001821680612ced57607f821691505b602082108103612d0057612cff612ca9565b5b50919050565b5f606082019050612d195f83018661268d565b612d26602083018561271d565b612d33604083018461268d565b949350505050565b5f604082019050612d4e5f83018561268d565b612d5b602083018461271d565b9392505050565b7f4e487b71000000000000000000000000000000000000000000000000000000005f52603260045260245ffd5b5f81905092915050565b5f612da48385612d8f565b9350612db1838584612934565b82840190509392505050565b5f612dc9828486612d99565b91508190509392505050565b7f4f726e616d656e7420616c7265616479206d696e7465640000000000000000005f82015250565b5f612e0960178361255f565b9150612e1482612dd5565b602082019050919050565b5f6020820190508181035f830152612e3681612dfd565b9050919050565b7f4e487b71000000000000000000000000000000000000000000000000000000005f52601160045260245ffd5b5f612e74826125ff565b91507fffffffffffffffffffffffffffffffffffffffffffffffffffffffffffffffff8203612ea657612ea5612e3d565b5b600182019050919050565b5f819050815f5260205f209050919050565b5f6020601f8301049050919050565b5f82821b905092915050565b5f60088302612f0d7fffffffffffffffffffffffffffffffffffffffffffffffffffffffffffffffff82612ed2565b612f178683612ed2565b95508019841693508086168417925050509392505050565b5f819050919050565b5f612f52612f4d612f48846125ff565b612f2f565b6125ff565b9050919050565b5f819050919050565b612f6b83612f38565b612f7f612f7782612f59565b848454612ede565b825550505050565b5f90565b612f93612f87565b612f9e818484612f62565b505050565b5b81811015612fc157612fb65f82612f8b565b600181019050612fa4565b5050565b601f82111561300657612fd781612eb1565b612fe084612ec3565b81016020851015612fef578190505b613003612ffb85612ec3565b830182612fa3565b50505b505050565b5f82821c905092915050565b5f6130265f198460080261300b565b1980831691505092915050565b5f61303e8383613017565b9150826002028217905092915050565b61305782612555565b67ffffffffffffffff8111156130705761306f61288c565b5b61307a8254612cd6565b613085828285612fc5565b5f60209050601f8311600181146130b6575f84156130a4578287015190505b6130ae8582613033565b865550613115565b601f1984166130c486612eb1565b5f5b828110156130eb578489015182556001820191506020850194506020810190506130c6565b868310156131085784890151613104601f891682613017565b8355505b6001600288020188555050505b505050505050565b5f81519050919050565b5f82825260208201905092915050565b5f6131418261311d565b61314b8185613127565b935061315b81856020860161256f565b61316481612597565b840191505092915050565b5f6080820190506131825f83018761268d565b61318f602083018661268d565b61319c604083018561271d565b81810360608301526131ae8184613137565b905095945050505050565b5f815190506131c7816124cd565b92915050565b5f602082840312156131e2576131e161249a565b5b5f6131ef848285016131b9565b91505092915050565b5f61320282612555565b61320c8185612d8f565b935061321c81856020860161256f565b80840191505092915050565b5f61323382856131f8565b915061323f82846131f8565b91508190509392505050565b5f60408201905061325e5f83018561268d565b61326b60208301846127f3565b9392505050565b5f61327c826125ff565b9150613287836125ff565b925082820390508181111561329f5761329e612e3d565b5b92915050565b7f4e487b71000000000000000000000000000000000000000000000000000000005f52603160045260245ffd5b7f4e487b71000000000000000000000000000000000000000000000000000000005f52601260045260245ffdfea2646970667358221220eb890dd999413e28acd992bf6fd1d90bf00f5fd79b561950d2db6cee609107c564736f6c63430008180033","linkReferences":{}},"methodIdentifiers":{"DEFAULT_ADMIN_ROLE()":"a217fddf","MINTER_ROLE()":"d5391393","approve(address,uint256)":"095ea7b3","balanceOf(address)":"70a08231","getApproved(uint256)":"081812fc","getRoleAdmin(bytes32)":"248a9ca3","grantRole(bytes32,address)":"2f2ff15d","hasRole(bytes32,address)":"91d14854","isApprovedForAll(address,address)":"e985e9c5","mintOrnament(address,string,string)":"9fab6c1c","name()":"06fdde03","ornamentIdToTokenId(string)":"9a5355b6","ownerOf(uint256)":"6352211e","renounceRole(bytes32,address)":"36568abe","revokeRole(bytes32,address)":"d547741f","safeTransferFrom(address,address,uint256)":"42842e0e","safeTransferFrom(address,address,uint256,bytes)":"b88d4fde","setApprovalForAll(address,bool)":"a22cb465","supportsInterface(bytes4)":"01ffc9a7","symbol()":"95d89b41","tokenByIndex(uint256)":"4f6ccce7","tokenOfOwnerByIndex(address,uint256)":"2f745c59","tokenURI(uint256)":"c87b56dd","totalSupply()":"18160ddd","transferFrom(address,address,uint256)":"23b872dd"},"id":41}